{
	"abi": [
		{
			"anonymous": false,
			"inputs": [
				{
					"indexed": true,
					"internalType": "address",
					"name": "controllerAddress",
					"type": "address"
				},
				{
					"indexed": false,
					"internalType": "string",
					"name": "controllerId",
					"type": "string"
				}
			],
			"name": "ControllerSet",
			"type": "event"
		},
		{
			"anonymous": false,
			"inputs": [
				{
					"indexed": false,
					"internalType": "uint256",
					"name": "depositFee",
					"type": "uint256"
				}
			],
			"name": "DepositFeeSet",
			"type": "event"
		},
		{
			"anonymous": false,
			"inputs": [
				{
					"indexed": true,
					"internalType": "address",
					"name": "initiator",
					"type": "address"
				}
			],
			"name": "Initialized",
			"type": "event"
		},
		{
			"anonymous": false,
			"inputs": [
				{
					"indexed": true,
					"internalType": "address",
					"name": "previousOwner",
					"type": "address"
				},
				{
					"indexed": true,
					"internalType": "address",
					"name": "newOwner",
					"type": "address"
				}
			],
			"name": "OwnershipTransferred",
			"type": "event"
		},
		{
			"anonymous": false,
			"inputs": [
				{
					"indexed": true,
					"internalType": "address",
					"name": "assetToken",
					"type": "address"
				},
				{
					"indexed": false,
					"internalType": "uint256",
					"name": "depositAmount",
					"type": "uint256"
				},
				{
					"indexed": false,
					"internalType": "uint256",
					"name": "feesCollected",
					"type": "uint256"
				}
			],
			"name": "ProtocolFeesCollected",
			"type": "event"
		},
		{
			"anonymous": false,
			"inputs": [
				{
					"indexed": true,
					"internalType": "address",
					"name": "receiver",
					"type": "address"
				},
				{
					"indexed": true,
					"internalType": "address",
					"name": "tokenAddress",
					"type": "address"
				},
				{
					"indexed": true,
					"internalType": "uint256",
					"name": "tokenId",
					"type": "uint256"
				},
				{
					"indexed": false,
					"internalType": "uint256",
					"name": "amount",
					"type": "uint256"
				}
			],
			"name": "WithdrawStuckERC1155",
			"type": "event"
		},
		{
			"anonymous": false,
			"inputs": [
				{
					"indexed": true,
					"internalType": "address",
					"name": "receiver",
					"type": "address"
				},
				{
					"indexed": true,
					"internalType": "address",
					"name": "tokenAddress",
					"type": "address"
				},
				{
					"indexed": false,
					"internalType": "uint256",
					"name": "amount",
					"type": "uint256"
				}
			],
			"name": "WithdrawStuckERC20",
			"type": "event"
		},
		{
			"anonymous": false,
			"inputs": [
				{
					"indexed": true,
					"internalType": "address",
					"name": "receiver",
					"type": "address"
				},
				{
					"indexed": true,
					"internalType": "address",
					"name": "tokenAddress",
					"type": "address"
				},
				{
					"indexed": true,
					"internalType": "uint256",
					"name": "tokenId",
					"type": "uint256"
				}
			],
			"name": "WithdrawStuckERC721",
			"type": "event"
		},
		{
			"anonymous": false,
			"inputs": [
				{
					"indexed": true,
					"internalType": "address",
					"name": "receiver",
					"type": "address"
				},
				{
					"indexed": false,
					"internalType": "uint256",
					"name": "amount",
					"type": "uint256"
				}
			],
			"name": "WithdrawStuckEther",
			"type": "event"
		},
		{
			"inputs": [
				{
					"internalType": "address",
					"name": "contractAddress",
					"type": "address"
				},
				{
					"internalType": "uint256",
					"name": "tokenId",
					"type": "uint256"
				},
				{
					"internalType": "string",
					"name": "walletManagerId",
					"type": "string"
				},
				{
					"internalType": "address",
					"name": "assetToken",
					"type": "address"
				}
			],
			"name": "baseParticleMass",
			"outputs": [
				{
					"internalType": "uint256",
					"name": "",
					"type": "uint256"
				}
			],
			"stateMutability": "nonpayable",
			"type": "function"
		},
		{
			"inputs": [
				{
					"internalType": "address",
					"name": "receiver",
					"type": "address"
				},
				{
					"internalType": "address",
					"name": "contractAddress",
					"type": "address"
				},
				{
					"internalType": "uint256",
					"name": "tokenId",
					"type": "uint256"
				},
				{
					"internalType": "string",
					"name": "basketManagerId",
					"type": "string"
				},
				{
					"internalType": "address",
					"name": "nftTokenAddress",
					"type": "address"
				},
				{
					"internalType": "uint256",
					"name": "nftTokenId",
					"type": "uint256"
				}
			],
			"name": "breakCovalentBond",
			"outputs": [
				{
					"internalType": "bool",
					"name": "success",
					"type": "bool"
				}
			],
			"stateMutability": "nonpayable",
			"type": "function"
		},
		{
			"inputs": [
				{
					"internalType": "address",
					"name": "contractAddress",
					"type": "address"
				},
				{
					"internalType": "uint256",
					"name": "tokenId",
					"type": "uint256"
				},
				{
					"internalType": "string",
					"name": "basketManagerId",
					"type": "string"
				},
				{
					"internalType": "address",
					"name": "nftTokenAddress",
					"type": "address"
				},
				{
					"internalType": "uint256",
					"name": "nftTokenId",
					"type": "uint256"
				}
			],
			"name": "covalentBond",
			"outputs": [
				{
					"internalType": "bool",
					"name": "success",
					"type": "bool"
				}
			],
			"stateMutability": "nonpayable",
			"type": "function"
		},
		{
			"inputs": [
				{
					"internalType": "address",
					"name": "contractAddress",
					"type": "address"
				},
				{
					"internalType": "uint256",
					"name": "tokenId",
					"type": "uint256"
				},
				{
					"internalType": "string",
					"name": "walletManagerId",
					"type": "string"
				},
				{
					"internalType": "address",
					"name": "assetToken",
					"type": "address"
				}
			],
			"name": "currentParticleCharge",
			"outputs": [
				{
					"internalType": "uint256",
					"name": "",
					"type": "uint256"
				}
			],
			"stateMutability": "nonpayable",
			"type": "function"
		},
		{
			"inputs": [
				{
					"internalType": "address",
					"name": "contractAddress",
					"type": "address"
				},
				{
					"internalType": "uint256",
					"name": "tokenId",
					"type": "uint256"
				},
				{
					"internalType": "string",
					"name": "basketManagerId",
					"type": "string"
				}
			],
			"name": "currentParticleCovalentBonds",
			"outputs": [
				{
					"internalType": "uint256",
					"name": "",
					"type": "uint256"
				}
			],
			"stateMutability": "view",
			"type": "function"
		},
		{
			"inputs": [
				{
					"internalType": "address",
					"name": "contractAddress",
					"type": "address"
				},
				{
					"internalType": "uint256",
					"name": "tokenId",
					"type": "uint256"
				},
				{
					"internalType": "string",
					"name": "walletManagerId",
					"type": "string"
				},
				{
					"internalType": "address",
					"name": "assetToken",
					"type": "address"
				}
			],
			"name": "currentParticleKinetics",
			"outputs": [
				{
					"internalType": "uint256",
					"name": "",
					"type": "uint256"
				}
			],
			"stateMutability": "nonpayable",
			"type": "function"
		},
		{
			"inputs": [
				{
					"internalType": "address",
					"name": "receiver",
					"type": "address"
				},
				{
					"internalType": "address",
					"name": "contractAddress",
					"type": "address"
				},
				{
					"internalType": "uint256",
					"name": "tokenId",
					"type": "uint256"
				},
				{
					"internalType": "string",
					"name": "walletManagerId",
					"type": "string"
				},
				{
					"internalType": "address",
					"name": "assetToken",
					"type": "address"
				}
			],
			"name": "dischargeParticle",
			"outputs": [
				{
					"internalType": "uint256",
					"name": "creatorAmount",
					"type": "uint256"
				},
				{
					"internalType": "uint256",
					"name": "receiverAmount",
					"type": "uint256"
				}
			],
			"stateMutability": "nonpayable",
			"type": "function"
		},
		{
			"inputs": [
				{
					"internalType": "address",
					"name": "receiver",
					"type": "address"
				},
				{
					"internalType": "address",
					"name": "contractAddress",
					"type": "address"
				},
				{
					"internalType": "uint256",
					"name": "tokenId",
					"type": "uint256"
				},
				{
					"internalType": "string",
					"name": "walletManagerId",
					"type": "string"
				},
				{
					"internalType": "address",
					"name": "assetToken",
					"type": "address"
				},
				{
					"internalType": "uint256",
					"name": "assetAmount",
					"type": "uint256"
				}
			],
			"name": "dischargeParticleAmount",
			"outputs": [
				{
					"internalType": "uint256",
					"name": "creatorAmount",
					"type": "uint256"
				},
				{
					"internalType": "uint256",
					"name": "receiverAmount",
					"type": "uint256"
				}
			],
			"stateMutability": "nonpayable",
			"type": "function"
		},
		{
			"inputs": [
				{
					"internalType": "address",
					"name": "receiver",
					"type": "address"
				},
				{
					"internalType": "address",
					"name": "contractAddress",
					"type": "address"
				},
				{
					"internalType": "uint256",
					"name": "tokenId",
					"type": "uint256"
				},
				{
					"internalType": "string",
					"name": "walletManagerId",
					"type": "string"
				},
				{
					"internalType": "address",
					"name": "assetToken",
					"type": "address"
				},
				{
					"internalType": "uint256",
					"name": "assetAmount",
					"type": "uint256"
				}
			],
			"name": "dischargeParticleForCreator",
			"outputs": [
				{
					"internalType": "uint256",
					"name": "receiverAmount",
					"type": "uint256"
				}
			],
			"stateMutability": "nonpayable",
			"type": "function"
		},
		{
			"inputs": [
				{
					"internalType": "address",
					"name": "contractAddress",
					"type": "address"
				},
				{
					"internalType": "uint256",
					"name": "tokenId",
					"type": "uint256"
				},
				{
					"internalType": "string",
					"name": "walletManagerId",
					"type": "string"
				},
				{
					"internalType": "address",
					"name": "assetToken",
					"type": "address"
				},
				{
					"internalType": "uint256",
					"name": "assetAmount",
					"type": "uint256"
				},
				{
					"internalType": "address",
					"name": "referrer",
					"type": "address"
				}
			],
			"name": "energizeParticle",
			"outputs": [
				{
					"internalType": "uint256",
					"name": "yieldTokensAmount",
					"type": "uint256"
				}
			],
			"stateMutability": "nonpayable",
			"type": "function"
		},
		{
			"inputs": [
				{
					"internalType": "uint256",
					"name": "assetAmount",
					"type": "uint256"
				}
			],
			"name": "getFeesForDeposit",
			"outputs": [
				{
					"internalType": "uint256",
					"name": "protocolFee",
					"type": "uint256"
				}
			],
			"stateMutability": "view",
			"type": "function"
		},
		{
			"inputs": [],
			"name": "getManagersAddress",
			"outputs": [
				{
					"internalType": "address",
					"name": "managersAddress",
					"type": "address"
				}
			],
			"stateMutability": "view",
			"type": "function"
		},
		{
			"inputs": [],
			"name": "getSettingsAddress",
			"outputs": [
				{
					"internalType": "address",
					"name": "settingsAddress",
					"type": "address"
				}
			],
			"stateMutability": "view",
			"type": "function"
		},
		{
			"inputs": [],
			"name": "getStateAddress",
			"outputs": [
				{
					"internalType": "address",
					"name": "stateAddress",
					"type": "address"
				}
			],
			"stateMutability": "view",
			"type": "function"
		},
		{
			"inputs": [
				{
					"internalType": "address",
					"name": "initiator",
					"type": "address"
				}
			],
			"name": "initialize",
			"outputs": [],
			"stateMutability": "nonpayable",
			"type": "function"
		},
		{
			"inputs": [
				{
					"internalType": "address",
					"name": "forwarder",
					"type": "address"
				}
			],
			"name": "isTrustedForwarder",
			"outputs": [
				{
					"internalType": "bool",
					"name": "",
					"type": "bool"
				}
			],
			"stateMutability": "view",
			"type": "function"
		},
		{
			"inputs": [
				{
					"internalType": "address",
					"name": "",
					"type": "address"
				},
				{
					"internalType": "address",
					"name": "",
					"type": "address"
				},
				{
					"internalType": "uint256[]",
					"name": "",
					"type": "uint256[]"
				},
				{
					"internalType": "uint256[]",
					"name": "",
					"type": "uint256[]"
				},
				{
					"internalType": "bytes",
					"name": "",
					"type": "bytes"
				}
			],
			"name": "onERC1155BatchReceived",
			"outputs": [
				{
					"internalType": "bytes4",
					"name": "",
					"type": "bytes4"
				}
			],
			"stateMutability": "nonpayable",
			"type": "function"
		},
		{
			"inputs": [
				{
					"internalType": "address",
					"name": "",
					"type": "address"
				},
				{
					"internalType": "address",
					"name": "",
					"type": "address"
				},
				{
					"internalType": "uint256",
					"name": "",
					"type": "uint256"
				},
				{
					"internalType": "uint256",
					"name": "",
					"type": "uint256"
				},
				{
					"internalType": "bytes",
					"name": "",
					"type": "bytes"
				}
			],
			"name": "onERC1155Received",
			"outputs": [
				{
					"internalType": "bytes4",
					"name": "",
					"type": "bytes4"
				}
			],
			"stateMutability": "nonpayable",
			"type": "function"
		},
		{
			"inputs": [
				{
					"internalType": "address",
					"name": "",
					"type": "address"
				},
				{
					"internalType": "address",
					"name": "",
					"type": "address"
				},
				{
					"internalType": "uint256",
					"name": "",
					"type": "uint256"
				},
				{
					"internalType": "bytes",
					"name": "",
					"type": "bytes"
				}
			],
			"name": "onERC721Received",
			"outputs": [
				{
					"internalType": "bytes4",
					"name": "",
					"type": "bytes4"
				}
			],
			"stateMutability": "nonpayable",
			"type": "function"
		},
		{
			"inputs": [],
			"name": "owner",
			"outputs": [
				{
					"internalType": "address",
					"name": "",
					"type": "address"
				}
			],
			"stateMutability": "view",
			"type": "function"
		},
		{
			"inputs": [
				{
					"internalType": "address",
					"name": "receiver",
					"type": "address"
				},
				{
					"internalType": "address",
					"name": "contractAddress",
					"type": "address"
				},
				{
					"internalType": "uint256",
					"name": "tokenId",
					"type": "uint256"
				},
				{
					"internalType": "string",
					"name": "walletManagerId",
					"type": "string"
				},
				{
					"internalType": "address",
					"name": "assetToken",
					"type": "address"
				}
			],
			"name": "releaseParticle",
			"outputs": [
				{
					"internalType": "uint256",
					"name": "creatorAmount",
					"type": "uint256"
				},
				{
					"internalType": "uint256",
					"name": "receiverAmount",
					"type": "uint256"
				}
			],
			"stateMutability": "nonpayable",
			"type": "function"
		},
		{
			"inputs": [
				{
					"internalType": "address",
					"name": "receiver",
					"type": "address"
				},
				{
					"internalType": "address",
					"name": "contractAddress",
					"type": "address"
				},
				{
					"internalType": "uint256",
					"name": "tokenId",
					"type": "uint256"
				},
				{
					"internalType": "string",
					"name": "walletManagerId",
					"type": "string"
				},
				{
					"internalType": "address",
					"name": "assetToken",
					"type": "address"
				},
				{
					"internalType": "uint256",
					"name": "assetAmount",
					"type": "uint256"
				}
			],
			"name": "releaseParticleAmount",
			"outputs": [
				{
					"internalType": "uint256",
					"name": "creatorAmount",
					"type": "uint256"
				},
				{
					"internalType": "uint256",
					"name": "receiverAmount",
					"type": "uint256"
				}
			],
			"stateMutability": "nonpayable",
			"type": "function"
		},
		{
			"inputs": [],
			"name": "renounceOwnership",
			"outputs": [],
			"stateMutability": "nonpayable",
			"type": "function"
		},
		{
			"inputs": [
				{
					"internalType": "address",
					"name": "controller",
					"type": "address"
				},
				{
					"internalType": "string",
					"name": "controllerId",
					"type": "string"
				}
			],
			"name": "setController",
			"outputs": [],
			"stateMutability": "nonpayable",
			"type": "function"
		},
		{
			"inputs": [
				{
					"internalType": "uint256",
					"name": "fee",
					"type": "uint256"
				}
			],
			"name": "setDepositFee",
			"outputs": [],
			"stateMutability": "nonpayable",
			"type": "function"
		},
		{
			"inputs": [
				{
					"internalType": "bytes4",
					"name": "",
					"type": "bytes4"
				}
			],
			"name": "supportsInterface",
			"outputs": [
				{
					"internalType": "bool",
					"name": "",
					"type": "bool"
				}
			],
			"stateMutability": "view",
			"type": "function"
		},
		{
			"inputs": [
				{
					"internalType": "address",
					"name": "newOwner",
					"type": "address"
				}
			],
			"name": "transferOwnership",
			"outputs": [],
			"stateMutability": "nonpayable",
			"type": "function"
		},
		{
			"inputs": [],
			"name": "trustedForwarder",
			"outputs": [
				{
					"internalType": "address",
					"name": "",
					"type": "address"
				}
			],
			"stateMutability": "view",
			"type": "function"
		},
		{
			"inputs": [],
			"name": "versionRecipient",
			"outputs": [
				{
					"internalType": "string",
					"name": "",
					"type": "string"
				}
			],
			"stateMutability": "view",
			"type": "function"
		},
		{
			"inputs": [
				{
					"internalType": "address payable",
					"name": "receiver",
					"type": "address"
				},
				{
					"internalType": "address",
					"name": "tokenAddress",
					"type": "address"
				},
				{
					"internalType": "uint256",
					"name": "tokenId",
					"type": "uint256"
				},
				{
					"internalType": "uint256",
					"name": "amount",
					"type": "uint256"
				}
			],
			"name": "withdrawERC1155",
			"outputs": [],
			"stateMutability": "nonpayable",
			"type": "function"
		},
		{
			"inputs": [
				{
					"internalType": "address payable",
					"name": "receiver",
					"type": "address"
				},
				{
					"internalType": "address",
					"name": "tokenAddress",
					"type": "address"
				},
				{
					"internalType": "uint256",
					"name": "tokenId",
					"type": "uint256"
				}
			],
			"name": "withdrawERC721",
			"outputs": [],
			"stateMutability": "nonpayable",
			"type": "function"
		},
		{
			"inputs": [
				{
					"internalType": "address payable",
					"name": "receiver",
					"type": "address"
				},
				{
					"internalType": "address",
					"name": "tokenAddress",
					"type": "address"
				},
				{
					"internalType": "uint256",
					"name": "amount",
					"type": "uint256"
				}
			],
			"name": "withdrawErc20",
			"outputs": [],
			"stateMutability": "nonpayable",
			"type": "function"
		},
		{
			"inputs": [
				{
					"internalType": "address payable",
					"name": "receiver",
					"type": "address"
				},
				{
					"internalType": "uint256",
					"name": "amount",
					"type": "uint256"
				}
			],
			"name": "withdrawEther",
			"outputs": [],
			"stateMutability": "nonpayable",
			"type": "function"
		}
	],
	"address": "0x002E48F4bc55dd3156c56Dd5B2722257Ef7A486D",
	"upgradeTransaction": {
		"hash": "0xbee71044739c3a3d20fbdaed5d816d7ccc8ee66300e9491fb66c8b501109df88",
		"type": 0,
		"accessList": null,
		"blockHash": null,
		"blockNumber": null,
		"transactionIndex": null,
		"confirmations": 0,
		"from": "0x6d46b37708dA7Ed4E5C4509495768Fecd3D17C01",
		"gasPrice": {
			"type": "BigNumber",
			"hex": "0x02540be400"
		},
		"gasLimit": {
			"type": "BigNumber",
			"hex": "0x981d"
		},
		"to": "0xbE8cF6fc642ADD9261a7cABC04287616A3820d11",
		"value": {
			"type": "BigNumber",
			"hex": "0x00"
		},
		"nonce": 3960,
		"data": "0x99a88ec4000000000000000000000000002e48f4bc55dd3156c56dd5b2722257ef7a486d00000000000000000000000078c96abf20bf43e129ff27b25a135c0e70ceb2bc",
		"r": "0x76f742e5f16bad0a051865807dbd30c3cb1f5d2507929a88707c8e5977161e7a",
		"s": "0x57ab62798ba2c24a53b92c101e4c74c44d44a682b364b85b569df7ce0bf66cfc",
		"v": 120,
		"creates": null,
		"raw": "0xf8ab820f788502540be40082981d94be8cf6fc642add9261a7cabc04287616a3820d1180b84499a88ec4000000000000000000000000002e48f4bc55dd3156c56dd5b2722257ef7a486d00000000000000000000000078c96abf20bf43e129ff27b25a135c0e70ceb2bc78a076f742e5f16bad0a051865807dbd30c3cb1f5d2507929a88707c8e5977161e7aa057ab62798ba2c24a53b92c101e4c74c44d44a682b364b85b569df7ce0bf66cfc",
		"chainId": 42
	}
}