{
	"abi": [
		{
			"anonymous": false,
			"inputs": [
				{
					"indexed": true,
					"internalType": "address",
					"name": "controllerAddress",
					"type": "address"
				},
				{
					"indexed": false,
					"internalType": "string",
					"name": "controllerId",
					"type": "string"
				}
			],
			"name": "ControllerSet",
			"type": "event"
		},
		{
			"anonymous": false,
			"inputs": [
				{
					"indexed": false,
					"internalType": "uint256",
					"name": "depositFee",
					"type": "uint256"
				}
			],
			"name": "DepositFeeSet",
			"type": "event"
		},
		{
			"anonymous": false,
			"inputs": [
				{
					"indexed": true,
					"internalType": "address",
					"name": "initiator",
					"type": "address"
				}
			],
			"name": "Initialized",
			"type": "event"
		},
		{
			"anonymous": false,
			"inputs": [
				{
					"indexed": true,
					"internalType": "address",
					"name": "previousOwner",
					"type": "address"
				},
				{
					"indexed": true,
					"internalType": "address",
					"name": "newOwner",
					"type": "address"
				}
			],
			"name": "OwnershipTransferred",
			"type": "event"
		},
		{
			"anonymous": false,
			"inputs": [
				{
					"indexed": true,
					"internalType": "address",
					"name": "assetToken",
					"type": "address"
				},
				{
					"indexed": false,
					"internalType": "uint256",
					"name": "depositAmount",
					"type": "uint256"
				},
				{
					"indexed": false,
					"internalType": "uint256",
					"name": "feesCollected",
					"type": "uint256"
				}
			],
			"name": "ProtocolFeesCollected",
			"type": "event"
		},
		{
			"anonymous": false,
			"inputs": [
				{
					"indexed": true,
					"internalType": "address",
					"name": "receiver",
					"type": "address"
				},
				{
					"indexed": true,
					"internalType": "address",
					"name": "tokenAddress",
					"type": "address"
				},
				{
					"indexed": true,
					"internalType": "uint256",
					"name": "tokenId",
					"type": "uint256"
				},
				{
					"indexed": false,
					"internalType": "uint256",
					"name": "amount",
					"type": "uint256"
				}
			],
			"name": "WithdrawStuckERC1155",
			"type": "event"
		},
		{
			"anonymous": false,
			"inputs": [
				{
					"indexed": true,
					"internalType": "address",
					"name": "receiver",
					"type": "address"
				},
				{
					"indexed": true,
					"internalType": "address",
					"name": "tokenAddress",
					"type": "address"
				},
				{
					"indexed": false,
					"internalType": "uint256",
					"name": "amount",
					"type": "uint256"
				}
			],
			"name": "WithdrawStuckERC20",
			"type": "event"
		},
		{
			"anonymous": false,
			"inputs": [
				{
					"indexed": true,
					"internalType": "address",
					"name": "receiver",
					"type": "address"
				},
				{
					"indexed": true,
					"internalType": "address",
					"name": "tokenAddress",
					"type": "address"
				},
				{
					"indexed": true,
					"internalType": "uint256",
					"name": "tokenId",
					"type": "uint256"
				}
			],
			"name": "WithdrawStuckERC721",
			"type": "event"
		},
		{
			"anonymous": false,
			"inputs": [
				{
					"indexed": true,
					"internalType": "address",
					"name": "receiver",
					"type": "address"
				},
				{
					"indexed": false,
					"internalType": "uint256",
					"name": "amount",
					"type": "uint256"
				}
			],
			"name": "WithdrawStuckEther",
			"type": "event"
		},
		{
			"inputs": [
				{
					"internalType": "address",
					"name": "contractAddress",
					"type": "address"
				},
				{
					"internalType": "uint256",
					"name": "tokenId",
					"type": "uint256"
				},
				{
					"internalType": "string",
					"name": "walletManagerId",
					"type": "string"
				},
				{
					"internalType": "address",
					"name": "assetToken",
					"type": "address"
				}
			],
			"name": "baseParticleMass",
			"outputs": [
				{
					"internalType": "uint256",
					"name": "",
					"type": "uint256"
				}
			],
			"stateMutability": "nonpayable",
			"type": "function"
		},
		{
			"inputs": [
				{
					"internalType": "address",
					"name": "receiver",
					"type": "address"
				},
				{
					"internalType": "address",
					"name": "contractAddress",
					"type": "address"
				},
				{
					"internalType": "uint256",
					"name": "tokenId",
					"type": "uint256"
				},
				{
					"internalType": "string",
					"name": "basketManagerId",
					"type": "string"
				},
				{
					"internalType": "address",
					"name": "nftTokenAddress",
					"type": "address"
				},
				{
					"internalType": "uint256",
					"name": "nftTokenId",
					"type": "uint256"
				}
			],
			"name": "breakCovalentBond",
			"outputs": [
				{
					"internalType": "bool",
					"name": "success",
					"type": "bool"
				}
			],
			"stateMutability": "nonpayable",
			"type": "function"
		},
		{
			"inputs": [
				{
					"internalType": "address",
					"name": "contractAddress",
					"type": "address"
				},
				{
					"internalType": "uint256",
					"name": "tokenId",
					"type": "uint256"
				},
				{
					"internalType": "string",
					"name": "basketManagerId",
					"type": "string"
				},
				{
					"internalType": "address",
					"name": "nftTokenAddress",
					"type": "address"
				},
				{
					"internalType": "uint256",
					"name": "nftTokenId",
					"type": "uint256"
				}
			],
			"name": "covalentBond",
			"outputs": [
				{
					"internalType": "bool",
					"name": "success",
					"type": "bool"
				}
			],
			"stateMutability": "nonpayable",
			"type": "function"
		},
		{
			"inputs": [
				{
					"internalType": "address",
					"name": "contractAddress",
					"type": "address"
				},
				{
					"internalType": "uint256",
					"name": "tokenId",
					"type": "uint256"
				},
				{
					"internalType": "string",
					"name": "walletManagerId",
					"type": "string"
				},
				{
					"internalType": "address",
					"name": "assetToken",
					"type": "address"
				}
			],
			"name": "currentParticleCharge",
			"outputs": [
				{
					"internalType": "uint256",
					"name": "",
					"type": "uint256"
				}
			],
			"stateMutability": "nonpayable",
			"type": "function"
		},
		{
			"inputs": [
				{
					"internalType": "address",
					"name": "contractAddress",
					"type": "address"
				},
				{
					"internalType": "uint256",
					"name": "tokenId",
					"type": "uint256"
				},
				{
					"internalType": "string",
					"name": "basketManagerId",
					"type": "string"
				}
			],
			"name": "currentParticleCovalentBonds",
			"outputs": [
				{
					"internalType": "uint256",
					"name": "",
					"type": "uint256"
				}
			],
			"stateMutability": "view",
			"type": "function"
		},
		{
			"inputs": [
				{
					"internalType": "address",
					"name": "contractAddress",
					"type": "address"
				},
				{
					"internalType": "uint256",
					"name": "tokenId",
					"type": "uint256"
				},
				{
					"internalType": "string",
					"name": "walletManagerId",
					"type": "string"
				},
				{
					"internalType": "address",
					"name": "assetToken",
					"type": "address"
				}
			],
			"name": "currentParticleKinetics",
			"outputs": [
				{
					"internalType": "uint256",
					"name": "",
					"type": "uint256"
				}
			],
			"stateMutability": "nonpayable",
			"type": "function"
		},
		{
			"inputs": [
				{
					"internalType": "address",
					"name": "receiver",
					"type": "address"
				},
				{
					"internalType": "address",
					"name": "contractAddress",
					"type": "address"
				},
				{
					"internalType": "uint256",
					"name": "tokenId",
					"type": "uint256"
				},
				{
					"internalType": "string",
					"name": "walletManagerId",
					"type": "string"
				},
				{
					"internalType": "address",
					"name": "assetToken",
					"type": "address"
				}
			],
			"name": "dischargeParticle",
			"outputs": [
				{
					"internalType": "uint256",
					"name": "creatorAmount",
					"type": "uint256"
				},
				{
					"internalType": "uint256",
					"name": "receiverAmount",
					"type": "uint256"
				}
			],
			"stateMutability": "nonpayable",
			"type": "function"
		},
		{
			"inputs": [
				{
					"internalType": "address",
					"name": "receiver",
					"type": "address"
				},
				{
					"internalType": "address",
					"name": "contractAddress",
					"type": "address"
				},
				{
					"internalType": "uint256",
					"name": "tokenId",
					"type": "uint256"
				},
				{
					"internalType": "string",
					"name": "walletManagerId",
					"type": "string"
				},
				{
					"internalType": "address",
					"name": "assetToken",
					"type": "address"
				},
				{
					"internalType": "uint256",
					"name": "assetAmount",
					"type": "uint256"
				}
			],
			"name": "dischargeParticleAmount",
			"outputs": [
				{
					"internalType": "uint256",
					"name": "creatorAmount",
					"type": "uint256"
				},
				{
					"internalType": "uint256",
					"name": "receiverAmount",
					"type": "uint256"
				}
			],
			"stateMutability": "nonpayable",
			"type": "function"
		},
		{
			"inputs": [
				{
					"internalType": "address",
					"name": "receiver",
					"type": "address"
				},
				{
					"internalType": "address",
					"name": "contractAddress",
					"type": "address"
				},
				{
					"internalType": "uint256",
					"name": "tokenId",
					"type": "uint256"
				},
				{
					"internalType": "string",
					"name": "walletManagerId",
					"type": "string"
				},
				{
					"internalType": "address",
					"name": "assetToken",
					"type": "address"
				},
				{
					"internalType": "uint256",
					"name": "assetAmount",
					"type": "uint256"
				}
			],
			"name": "dischargeParticleForCreator",
			"outputs": [
				{
					"internalType": "uint256",
					"name": "receiverAmount",
					"type": "uint256"
				}
			],
			"stateMutability": "nonpayable",
			"type": "function"
		},
		{
			"inputs": [
				{
					"internalType": "address",
					"name": "contractAddress",
					"type": "address"
				},
				{
					"internalType": "uint256",
					"name": "tokenId",
					"type": "uint256"
				},
				{
					"internalType": "string",
					"name": "walletManagerId",
					"type": "string"
				},
				{
					"internalType": "address",
					"name": "assetToken",
					"type": "address"
				},
				{
					"internalType": "uint256",
					"name": "assetAmount",
					"type": "uint256"
				},
				{
					"internalType": "address",
					"name": "referrer",
					"type": "address"
				}
			],
			"name": "energizeParticle",
			"outputs": [
				{
					"internalType": "uint256",
					"name": "yieldTokensAmount",
					"type": "uint256"
				}
			],
			"stateMutability": "nonpayable",
			"type": "function"
		},
		{
			"inputs": [
				{
					"internalType": "uint256",
					"name": "assetAmount",
					"type": "uint256"
				}
			],
			"name": "getFeesForDeposit",
			"outputs": [
				{
					"internalType": "uint256",
					"name": "protocolFee",
					"type": "uint256"
				}
			],
			"stateMutability": "view",
			"type": "function"
		},
		{
			"inputs": [],
			"name": "getManagersAddress",
			"outputs": [
				{
					"internalType": "address",
					"name": "managersAddress",
					"type": "address"
				}
			],
			"stateMutability": "view",
			"type": "function"
		},
		{
			"inputs": [],
			"name": "getSettingsAddress",
			"outputs": [
				{
					"internalType": "address",
					"name": "settingsAddress",
					"type": "address"
				}
			],
			"stateMutability": "view",
			"type": "function"
		},
		{
			"inputs": [],
			"name": "getStateAddress",
			"outputs": [
				{
					"internalType": "address",
					"name": "stateAddress",
					"type": "address"
				}
			],
			"stateMutability": "view",
			"type": "function"
		},
		{
			"inputs": [
				{
					"internalType": "address",
					"name": "initiator",
					"type": "address"
				}
			],
			"name": "initialize",
			"outputs": [],
			"stateMutability": "nonpayable",
			"type": "function"
		},
		{
			"inputs": [
				{
					"internalType": "address",
					"name": "forwarder",
					"type": "address"
				}
			],
			"name": "isTrustedForwarder",
			"outputs": [
				{
					"internalType": "bool",
					"name": "",
					"type": "bool"
				}
			],
			"stateMutability": "view",
			"type": "function"
		},
		{
			"inputs": [
				{
					"internalType": "address",
					"name": "",
					"type": "address"
				},
				{
					"internalType": "address",
					"name": "",
					"type": "address"
				},
				{
					"internalType": "uint256[]",
					"name": "",
					"type": "uint256[]"
				},
				{
					"internalType": "uint256[]",
					"name": "",
					"type": "uint256[]"
				},
				{
					"internalType": "bytes",
					"name": "",
					"type": "bytes"
				}
			],
			"name": "onERC1155BatchReceived",
			"outputs": [
				{
					"internalType": "bytes4",
					"name": "",
					"type": "bytes4"
				}
			],
			"stateMutability": "nonpayable",
			"type": "function"
		},
		{
			"inputs": [
				{
					"internalType": "address",
					"name": "",
					"type": "address"
				},
				{
					"internalType": "address",
					"name": "",
					"type": "address"
				},
				{
					"internalType": "uint256",
					"name": "",
					"type": "uint256"
				},
				{
					"internalType": "uint256",
					"name": "",
					"type": "uint256"
				},
				{
					"internalType": "bytes",
					"name": "",
					"type": "bytes"
				}
			],
			"name": "onERC1155Received",
			"outputs": [
				{
					"internalType": "bytes4",
					"name": "",
					"type": "bytes4"
				}
			],
			"stateMutability": "nonpayable",
			"type": "function"
		},
		{
			"inputs": [
				{
					"internalType": "address",
					"name": "",
					"type": "address"
				},
				{
					"internalType": "address",
					"name": "",
					"type": "address"
				},
				{
					"internalType": "uint256",
					"name": "",
					"type": "uint256"
				},
				{
					"internalType": "bytes",
					"name": "",
					"type": "bytes"
				}
			],
			"name": "onERC721Received",
			"outputs": [
				{
					"internalType": "bytes4",
					"name": "",
					"type": "bytes4"
				}
			],
			"stateMutability": "nonpayable",
			"type": "function"
		},
		{
			"inputs": [],
			"name": "owner",
			"outputs": [
				{
					"internalType": "address",
					"name": "",
					"type": "address"
				}
			],
			"stateMutability": "view",
			"type": "function"
		},
		{
			"inputs": [
				{
					"internalType": "address",
					"name": "receiver",
					"type": "address"
				},
				{
					"internalType": "address",
					"name": "contractAddress",
					"type": "address"
				},
				{
					"internalType": "uint256",
					"name": "tokenId",
					"type": "uint256"
				},
				{
					"internalType": "string",
					"name": "walletManagerId",
					"type": "string"
				},
				{
					"internalType": "address",
					"name": "assetToken",
					"type": "address"
				}
			],
			"name": "releaseParticle",
			"outputs": [
				{
					"internalType": "uint256",
					"name": "creatorAmount",
					"type": "uint256"
				},
				{
					"internalType": "uint256",
					"name": "receiverAmount",
					"type": "uint256"
				}
			],
			"stateMutability": "nonpayable",
			"type": "function"
		},
		{
			"inputs": [
				{
					"internalType": "address",
					"name": "receiver",
					"type": "address"
				},
				{
					"internalType": "address",
					"name": "contractAddress",
					"type": "address"
				},
				{
					"internalType": "uint256",
					"name": "tokenId",
					"type": "uint256"
				},
				{
					"internalType": "string",
					"name": "walletManagerId",
					"type": "string"
				},
				{
					"internalType": "address",
					"name": "assetToken",
					"type": "address"
				},
				{
					"internalType": "uint256",
					"name": "assetAmount",
					"type": "uint256"
				}
			],
			"name": "releaseParticleAmount",
			"outputs": [
				{
					"internalType": "uint256",
					"name": "creatorAmount",
					"type": "uint256"
				},
				{
					"internalType": "uint256",
					"name": "receiverAmount",
					"type": "uint256"
				}
			],
			"stateMutability": "nonpayable",
			"type": "function"
		},
		{
			"inputs": [],
			"name": "renounceOwnership",
			"outputs": [],
			"stateMutability": "nonpayable",
			"type": "function"
		},
		{
			"inputs": [
				{
					"internalType": "address",
					"name": "controller",
					"type": "address"
				},
				{
					"internalType": "string",
					"name": "controllerId",
					"type": "string"
				}
			],
			"name": "setController",
			"outputs": [],
			"stateMutability": "nonpayable",
			"type": "function"
		},
		{
			"inputs": [
				{
					"internalType": "uint256",
					"name": "fee",
					"type": "uint256"
				}
			],
			"name": "setDepositFee",
			"outputs": [],
			"stateMutability": "nonpayable",
			"type": "function"
		},
		{
			"inputs": [
				{
					"internalType": "bytes4",
					"name": "interfaceId",
					"type": "bytes4"
				}
			],
			"name": "supportsInterface",
			"outputs": [
				{
					"internalType": "bool",
					"name": "",
					"type": "bool"
				}
			],
			"stateMutability": "view",
			"type": "function"
		},
		{
			"inputs": [
				{
					"internalType": "address",
					"name": "newOwner",
					"type": "address"
				}
			],
			"name": "transferOwnership",
			"outputs": [],
			"stateMutability": "nonpayable",
			"type": "function"
		},
		{
			"inputs": [],
			"name": "trustedForwarder",
			"outputs": [
				{
					"internalType": "address",
					"name": "",
					"type": "address"
				}
			],
			"stateMutability": "view",
			"type": "function"
		},
		{
			"inputs": [],
			"name": "versionRecipient",
			"outputs": [
				{
					"internalType": "string",
					"name": "",
					"type": "string"
				}
			],
			"stateMutability": "view",
			"type": "function"
		},
		{
			"inputs": [
				{
					"internalType": "address payable",
					"name": "receiver",
					"type": "address"
				},
				{
					"internalType": "address",
					"name": "tokenAddress",
					"type": "address"
				},
				{
					"internalType": "uint256",
					"name": "tokenId",
					"type": "uint256"
				},
				{
					"internalType": "uint256",
					"name": "amount",
					"type": "uint256"
				}
			],
			"name": "withdrawERC1155",
			"outputs": [],
			"stateMutability": "nonpayable",
			"type": "function"
		},
		{
			"inputs": [
				{
					"internalType": "address payable",
					"name": "receiver",
					"type": "address"
				},
				{
					"internalType": "address",
					"name": "tokenAddress",
					"type": "address"
				},
				{
					"internalType": "uint256",
					"name": "tokenId",
					"type": "uint256"
				}
			],
			"name": "withdrawERC721",
			"outputs": [],
			"stateMutability": "nonpayable",
			"type": "function"
		},
		{
			"inputs": [
				{
					"internalType": "address payable",
					"name": "receiver",
					"type": "address"
				},
				{
					"internalType": "address",
					"name": "tokenAddress",
					"type": "address"
				},
				{
					"internalType": "uint256",
					"name": "amount",
					"type": "uint256"
				}
			],
			"name": "withdrawErc20",
			"outputs": [],
			"stateMutability": "nonpayable",
			"type": "function"
		},
		{
			"inputs": [
				{
					"internalType": "address payable",
					"name": "receiver",
					"type": "address"
				},
				{
					"internalType": "uint256",
					"name": "amount",
					"type": "uint256"
				}
			],
			"name": "withdrawEther",
			"outputs": [],
			"stateMutability": "nonpayable",
			"type": "function"
		}
	],
	"address": "0xfAe69cdD4c1EBAE6cb60204a79A749D0Ce4260bf",
	"upgradeTransaction": {
		"hash": "0xe8a4391ae334829faed6509d368e3368a2bdd836730f97a37391294ab659f983",
		"type": 0,
		"accessList": null,
		"blockHash": null,
		"blockNumber": null,
		"transactionIndex": null,
		"confirmations": 0,
		"from": "0x6d46b37708dA7Ed4E5C4509495768Fecd3D17C01",
		"gasPrice": {
			"type": "BigNumber",
			"hex": "0x02540be400"
		},
		"gasLimit": {
			"type": "BigNumber",
			"hex": "0x981d"
		},
		"to": "0xe003a110AD61aa2Ee2E5af2753eDdA36717aC52d",
		"value": {
			"type": "BigNumber",
			"hex": "0x00"
		},
		"nonce": 3818,
		"data": "0x99a88ec4000000000000000000000000fae69cdd4c1ebae6cb60204a79a749d0ce4260bf0000000000000000000000009cc767b08eb78cb0dcfc008a9dd58d851929e160",
		"r": "0xa7cab76ed54a66d8f075377a4e1ce76ecc1308fab3f67b90579ad618885b2278",
		"s": "0x07240df9aa3ce70f78bf2bb46be7955ff6dd5aec908e7faaf4024aae8577b943",
		"v": 120,
		"creates": null,
		"raw": "0xf8ab820eea8502540be40082981d94e003a110ad61aa2ee2e5af2753edda36717ac52d80b84499a88ec4000000000000000000000000fae69cdd4c1ebae6cb60204a79a749d0ce4260bf0000000000000000000000009cc767b08eb78cb0dcfc008a9dd58d851929e16078a0a7cab76ed54a66d8f075377a4e1ce76ecc1308fab3f67b90579ad618885b2278a007240df9aa3ce70f78bf2bb46be7955ff6dd5aec908e7faaf4024aae8577b943",
		"chainId": 42
	}
}