{
	"abi": [
		{
			"anonymous": false,
			"inputs": [
				{
					"indexed": true,
					"internalType": "address",
					"name": "controllerAddress",
					"type": "address"
				},
				{
					"indexed": false,
					"internalType": "string",
					"name": "controllerId",
					"type": "string"
				}
			],
			"name": "ControllerSet",
			"type": "event"
		},
		{
			"anonymous": false,
			"inputs": [
				{
					"indexed": false,
					"internalType": "uint256",
					"name": "depositFee",
					"type": "uint256"
				}
			],
			"name": "DepositFeeSet",
			"type": "event"
		},
		{
			"anonymous": false,
			"inputs": [
				{
					"indexed": true,
					"internalType": "address",
					"name": "initiator",
					"type": "address"
				},
				{
					"indexed": true,
					"internalType": "address",
					"name": "newOwner",
					"type": "address"
				}
			],
			"name": "Initialized",
			"type": "event"
		},
		{
			"anonymous": false,
			"inputs": [
				{
					"indexed": true,
					"internalType": "address",
					"name": "previousOwner",
					"type": "address"
				},
				{
					"indexed": true,
					"internalType": "address",
					"name": "newOwner",
					"type": "address"
				},
				{
					"indexed": false,
					"internalType": "uint256",
					"name": "feesCollected",
					"type": "uint256"
				}
			],
			"name": "OwnershipTransferred",
			"type": "event"
		},
		{
			"anonymous": false,
			"inputs": [
				{
					"indexed": true,
					"internalType": "address",
					"name": "assetToken",
					"type": "address"
				},
				{
					"indexed": false,
					"internalType": "uint256",
					"name": "depositAmount",
					"type": "uint256"
				},
				{
					"indexed": false,
					"internalType": "uint256",
					"name": "feesCollected",
					"type": "uint256"
				},
				{
					"indexed": false,
					"internalType": "uint256",
					"name": "amount",
					"type": "uint256"
				}
			],
			"name": "ProtocolFeesCollected",
			"type": "event"
		},
		{
			"anonymous": false,
			"inputs": [
				{
					"indexed": true,
					"internalType": "address",
					"name": "receiver",
					"type": "address"
				},
				{
					"indexed": true,
					"internalType": "address",
					"name": "tokenAddress",
					"type": "address"
				},
				{
					"indexed": true,
					"internalType": "uint256",
					"name": "tokenId",
					"type": "uint256"
				},
				{
					"indexed": false,
					"internalType": "uint256",
					"name": "amount",
					"type": "uint256"
				}
			],
			"name": "WithdrawStuckERC1155",
			"type": "event"
		},
		{
			"anonymous": false,
			"inputs": [
				{
					"indexed": true,
					"internalType": "address",
					"name": "receiver",
					"type": "address"
				},
				{
					"indexed": true,
					"internalType": "address",
					"name": "tokenAddress",
					"type": "address"
				},
				{
					"indexed": false,
					"internalType": "uint256",
					"name": "amount",
					"type": "uint256"
				}
			],
			"name": "WithdrawStuckERC20",
			"type": "event"
		},
		{
			"anonymous": false,
			"inputs": [
				{
					"indexed": true,
					"internalType": "address",
					"name": "receiver",
					"type": "address"
				},
				{
					"indexed": true,
					"internalType": "address",
					"name": "tokenAddress",
					"type": "address"
				},
				{
					"indexed": true,
					"internalType": "uint256",
					"name": "tokenId",
					"type": "uint256"
				}
			],
			"name": "WithdrawStuckERC721",
			"type": "event"
		},
		{
			"inputs": [
				{
					"internalType": "address",
					"name": "receiver",
					"type": "address",
					"indexed": true
				},
				{
					"internalType": "uint256",
					"name": "amount",
					"type": "uint256",
					"indexed": false
				},
				{
					"internalType": "string",
					"name": "walletManagerId",
					"type": "string"
				},
				{
					"internalType": "address",
					"name": "assetToken",
					"type": "address"
				}
			],
			"name": "WithdrawStuckEther",
			"outputs": [
				{
					"internalType": "uint256",
					"name": "",
					"type": "uint256"
				}
			],
			"stateMutability": "nonpayable",
			"type": "event",
			"anonymous": false
		},
		{
			"inputs": [
				{
					"internalType": "address",
					"name": "contractAddress",
					"type": "address"
				},
				{
					"internalType": "uint256",
					"name": "tokenId",
					"type": "uint256"
				},
				{
					"internalType": "string",
					"name": "walletManagerId",
					"type": "string"
				},
				{
					"internalType": "address",
					"name": "assetToken",
					"type": "address"
				},
				{
					"internalType": "address",
					"name": "nftTokenAddress",
					"type": "address"
				},
				{
					"internalType": "uint256",
					"name": "nftTokenId",
					"type": "uint256"
				}
			],
			"name": "baseParticleMass",
			"outputs": [
				{
					"internalType": "uint256",
					"name": "",
					"type": "uint256"
				}
			],
			"stateMutability": "nonpayable",
			"type": "function"
		},
		{
			"inputs": [
				{
					"internalType": "address",
					"name": "receiver",
					"type": "address"
				},
				{
					"internalType": "address",
					"name": "contractAddress",
					"type": "address"
				},
				{
					"internalType": "uint256",
					"name": "tokenId",
					"type": "uint256"
				},
				{
					"internalType": "string",
					"name": "basketManagerId",
					"type": "string"
				},
				{
					"internalType": "address",
					"name": "nftTokenAddress",
					"type": "address"
				},
				{
					"internalType": "uint256",
					"name": "nftTokenId",
					"type": "uint256"
				}
			],
			"name": "breakCovalentBond",
			"outputs": [
				{
					"internalType": "bool",
					"name": "success",
					"type": "bool"
				}
			],
			"stateMutability": "nonpayable",
			"type": "function"
		},
		{
			"inputs": [
				{
					"internalType": "address",
					"name": "contractAddress",
					"type": "address"
				},
				{
					"internalType": "uint256",
					"name": "tokenId",
					"type": "uint256"
				},
				{
					"internalType": "string",
					"name": "basketManagerId",
					"type": "string"
				},
				{
					"internalType": "address",
					"name": "nftTokenAddress",
					"type": "address"
				},
				{
					"internalType": "uint256",
					"name": "nftTokenId",
					"type": "uint256"
				}
			],
			"name": "covalentBond",
			"outputs": [
				{
					"internalType": "bool",
					"name": "success",
					"type": "bool"
				}
			],
			"stateMutability": "nonpayable",
			"type": "function"
		},
		{
			"inputs": [
				{
					"internalType": "address",
					"name": "contractAddress",
					"type": "address"
				},
				{
					"internalType": "uint256",
					"name": "tokenId",
					"type": "uint256"
				},
				{
					"internalType": "string",
					"name": "walletManagerId",
					"type": "string"
				},
				{
					"internalType": "address",
					"name": "assetToken",
					"type": "address"
				}
			],
			"name": "currentParticleCharge",
			"outputs": [
				{
					"internalType": "uint256",
					"name": "",
					"type": "uint256"
				}
			],
			"stateMutability": "nonpayable",
			"type": "function"
		},
		{
			"inputs": [
				{
					"internalType": "address",
					"name": "contractAddress",
					"type": "address"
				},
				{
					"internalType": "uint256",
					"name": "tokenId",
					"type": "uint256"
				},
				{
					"internalType": "string",
					"name": "basketManagerId",
					"type": "string"
				},
				{
					"internalType": "address",
					"name": "assetToken",
					"type": "address"
				}
			],
			"name": "currentParticleCovalentBonds",
			"outputs": [
				{
					"internalType": "uint256",
					"name": "",
					"type": "uint256"
				}
			],
			"stateMutability": "view",
			"type": "function"
		},
		{
			"inputs": [
				{
					"internalType": "address",
					"name": "contractAddress",
					"type": "address"
				},
				{
					"internalType": "uint256",
					"name": "tokenId",
					"type": "uint256"
				},
				{
					"internalType": "string",
					"name": "walletManagerId",
					"type": "string"
				},
				{
					"internalType": "address",
					"name": "assetToken",
					"type": "address"
				},
				{
					"internalType": "address",
					"name": "assetToken",
					"type": "address"
				}
			],
			"name": "currentParticleKinetics",
			"outputs": [
				{
					"internalType": "uint256",
					"name": "",
					"type": "uint256"
				},
				{
					"internalType": "uint256",
					"name": "receiverAmount",
					"type": "uint256"
				}
			],
			"stateMutability": "nonpayable",
			"type": "function"
		},
		{
			"inputs": [
				{
					"internalType": "address",
					"name": "receiver",
					"type": "address"
				},
				{
					"internalType": "address",
					"name": "contractAddress",
					"type": "address"
				},
				{
					"internalType": "uint256",
					"name": "tokenId",
					"type": "uint256"
				},
				{
					"internalType": "string",
					"name": "walletManagerId",
					"type": "string"
				},
				{
					"internalType": "address",
					"name": "assetToken",
					"type": "address"
				},
				{
					"internalType": "uint256",
					"name": "assetAmount",
					"type": "uint256"
				}
			],
			"name": "dischargeParticle",
			"outputs": [
				{
					"internalType": "uint256",
					"name": "creatorAmount",
					"type": "uint256"
				},
				{
					"internalType": "uint256",
					"name": "receiverAmount",
					"type": "uint256"
				}
			],
			"stateMutability": "nonpayable",
			"type": "function"
		},
		{
			"inputs": [
				{
					"internalType": "address",
					"name": "receiver",
					"type": "address"
				},
				{
					"internalType": "address",
					"name": "contractAddress",
					"type": "address"
				},
				{
					"internalType": "uint256",
					"name": "tokenId",
					"type": "uint256"
				},
				{
					"internalType": "string",
					"name": "walletManagerId",
					"type": "string"
				},
				{
					"internalType": "address",
					"name": "assetToken",
					"type": "address"
				},
				{
					"internalType": "uint256",
					"name": "assetAmount",
					"type": "uint256"
				}
			],
			"name": "dischargeParticleAmount",
			"outputs": [
				{
					"internalType": "uint256",
					"name": "creatorAmount",
					"type": "uint256"
				},
				{
					"internalType": "uint256",
					"name": "receiverAmount",
					"type": "uint256"
				}
			],
			"stateMutability": "nonpayable",
			"type": "function"
		},
		{
			"inputs": [
				{
					"internalType": "address",
					"name": "receiver",
					"type": "address"
				},
				{
					"internalType": "address",
					"name": "contractAddress",
					"type": "address"
				},
				{
					"internalType": "uint256",
					"name": "tokenId",
					"type": "uint256"
				},
				{
					"internalType": "string",
					"name": "walletManagerId",
					"type": "string"
				},
				{
					"internalType": "address",
					"name": "assetToken",
					"type": "address"
				},
				{
					"internalType": "uint256",
					"name": "assetAmount",
					"type": "uint256"
				}
			],
			"name": "dischargeParticleForCreator",
			"outputs": [
				{
					"internalType": "uint256",
					"name": "receiverAmount",
					"type": "uint256"
				}
			],
			"stateMutability": "nonpayable",
			"type": "function"
		},
		{
			"inputs": [
				{
					"internalType": "address",
					"name": "contractAddress",
					"type": "address"
				},
				{
					"internalType": "uint256",
					"name": "tokenId",
					"type": "uint256"
				},
				{
					"internalType": "string",
					"name": "walletManagerId",
					"type": "string"
				},
				{
					"internalType": "address",
					"name": "assetToken",
					"type": "address"
				},
				{
					"internalType": "uint256",
					"name": "assetAmount",
					"type": "uint256"
				},
				{
					"internalType": "address",
					"name": "referrer",
					"type": "address"
				}
			],
			"name": "energizeParticle",
			"outputs": [
				{
					"internalType": "uint256",
					"name": "yieldTokensAmount",
					"type": "uint256"
				}
			],
			"stateMutability": "nonpayable",
			"type": "function"
		},
		{
			"inputs": [
				{
					"internalType": "uint256",
					"name": "assetAmount",
					"type": "uint256"
				}
			],
			"name": "getFeesForDeposit",
			"outputs": [
				{
					"internalType": "uint256",
					"name": "protocolFee",
					"type": "uint256"
				}
			],
			"stateMutability": "view",
			"type": "function"
		},
		{
			"inputs": [
				{
					"internalType": "address",
					"name": "_trustedForwarder",
					"type": "address"
				}
			],
			"name": "getManagersAddress",
			"outputs": [
				{
					"internalType": "address",
					"name": "managersAddress",
					"type": "address"
				}
			],
			"stateMutability": "view",
			"type": "function"
		},
		{
			"inputs": [
				{
					"internalType": "address",
					"name": "forwarder",
					"type": "address"
				}
			],
			"name": "getSettingsAddress",
			"outputs": [
				{
					"internalType": "address",
					"name": "settingsAddress",
					"type": "address"
				}
			],
			"stateMutability": "view",
			"type": "function"
		},
		{
			"inputs": [
				{
					"internalType": "address",
					"name": "",
					"type": "address"
				},
				{
					"internalType": "address",
					"name": "",
					"type": "address"
				},
				{
					"internalType": "uint256",
					"name": "",
					"type": "uint256"
				},
				{
					"internalType": "bytes",
					"name": "",
					"type": "bytes"
				}
			],
			"name": "getStateAddress",
			"outputs": [
				{
					"internalType": "address",
					"name": "stateAddress",
					"type": "address"
				}
			],
			"stateMutability": "view",
			"type": "function"
		},
		{
			"inputs": [
				{
					"internalType": "address",
					"name": "initiator",
					"type": "address"
				}
			],
			"name": "initialize",
			"outputs": [
				{
					"internalType": "bool",
					"name": "",
					"type": "bool"
				}
			],
			"stateMutability": "nonpayable",
			"type": "function"
		},
		{
			"inputs": [
				{
					"internalType": "address",
					"name": "forwarder",
					"type": "address"
				},
				{
					"internalType": "address",
					"name": "",
					"type": "address"
				},
				{
					"internalType": "uint256[]",
					"name": "",
					"type": "uint256[]"
				},
				{
					"internalType": "uint256[]",
					"name": "",
					"type": "uint256[]"
				},
				{
					"internalType": "bytes",
					"name": "",
					"type": "bytes"
				}
			],
			"name": "isTrustedForwarder",
			"outputs": [
				{
					"internalType": "bool",
					"name": "",
					"type": "bool"
				},
				{
					"internalType": "uint256",
					"name": "receiverAmount",
					"type": "uint256"
				}
			],
			"stateMutability": "view",
			"type": "function"
		},
		{
			"inputs": [
				{
					"internalType": "address",
					"name": "",
					"type": "address"
				},
				{
					"internalType": "address",
					"name": "",
					"type": "address"
				},
				{
					"internalType": "uint256[]",
					"name": "",
					"type": "uint256[]"
				},
				{
					"internalType": "uint256[]",
					"name": "",
					"type": "uint256[]"
				},
				{
					"internalType": "bytes",
					"name": "",
					"type": "bytes"
				},
				{
					"internalType": "uint256",
					"name": "assetAmount",
					"type": "uint256"
				}
			],
			"name": "onERC1155BatchReceived",
			"outputs": [
				{
					"internalType": "bytes4",
					"name": "",
					"type": "bytes4"
				},
				{
					"internalType": "uint256",
					"name": "receiverAmount",
					"type": "uint256"
				}
			],
			"stateMutability": "nonpayable",
			"type": "function"
		},
		{
			"inputs": [
				{
					"internalType": "address",
					"name": "",
					"type": "address"
				},
				{
					"internalType": "address",
					"name": "",
					"type": "address"
				},
				{
					"internalType": "uint256",
					"name": "",
					"type": "uint256"
				},
				{
					"internalType": "uint256",
					"name": "",
					"type": "uint256"
				},
				{
					"internalType": "bytes",
					"name": "",
					"type": "bytes"
				}
			],
			"name": "onERC1155Received",
			"outputs": [
				{
					"internalType": "bytes4",
					"name": "",
					"type": "bytes4"
				}
			],
			"stateMutability": "nonpayable",
			"type": "function"
		},
		{
			"inputs": [
				{
					"internalType": "address",
					"name": "",
					"type": "address"
				},
				{
					"internalType": "address",
					"name": "",
					"type": "address"
				},
				{
					"internalType": "uint256",
					"name": "",
					"type": "uint256"
				},
				{
					"internalType": "bytes",
					"name": "",
					"type": "bytes"
				}
			],
			"name": "onERC721Received",
			"outputs": [
				{
					"internalType": "bytes4",
					"name": "",
					"type": "bytes4"
				}
			],
			"stateMutability": "nonpayable",
			"type": "function"
		},
		{
			"inputs": [
				{
					"internalType": "address",
					"name": "receiver",
					"type": "address"
				},
				{
					"internalType": "address",
					"name": "contractAddress",
					"type": "address"
				},
				{
					"internalType": "uint256",
					"name": "tokenId",
					"type": "uint256"
				},
				{
					"internalType": "string",
					"name": "walletManagerId",
					"type": "string"
				},
				{
					"internalType": "address",
					"name": "assetToken",
					"type": "address"
				}
			],
			"name": "owner",
			"outputs": [
				{
					"internalType": "address",
					"name": "",
					"type": "address"
				},
				{
					"internalType": "uint256",
					"name": "receiverAmount",
					"type": "uint256"
				}
			],
			"stateMutability": "view",
			"type": "function"
		},
		{
			"inputs": [
				{
					"internalType": "address",
					"name": "receiver",
					"type": "address"
				},
				{
					"internalType": "address",
					"name": "contractAddress",
					"type": "address"
				},
				{
					"internalType": "uint256",
					"name": "tokenId",
					"type": "uint256"
				},
				{
					"internalType": "string",
					"name": "walletManagerId",
					"type": "string"
				},
				{
					"internalType": "address",
					"name": "assetToken",
					"type": "address"
				},
				{
					"internalType": "uint256",
					"name": "assetAmount",
					"type": "uint256"
				}
			],
			"name": "releaseParticle",
			"outputs": [
				{
					"internalType": "uint256",
					"name": "creatorAmount",
					"type": "uint256"
				},
				{
					"internalType": "uint256",
					"name": "receiverAmount",
					"type": "uint256"
				}
			],
			"stateMutability": "nonpayable",
			"type": "function"
		},
		{
			"inputs": [
				{
					"internalType": "address",
					"name": "receiver",
					"type": "address"
				},
				{
					"internalType": "address",
					"name": "contractAddress",
					"type": "address"
				},
				{
					"internalType": "uint256",
					"name": "tokenId",
					"type": "uint256"
				},
				{
					"internalType": "string",
					"name": "walletManagerId",
					"type": "string"
				},
				{
					"internalType": "address",
					"name": "assetToken",
					"type": "address"
				},
				{
					"internalType": "uint256",
					"name": "assetAmount",
					"type": "uint256"
				}
			],
			"name": "releaseParticleAmount",
			"outputs": [
				{
					"internalType": "uint256",
					"name": "creatorAmount",
					"type": "uint256"
				},
				{
					"internalType": "uint256",
					"name": "receiverAmount",
					"type": "uint256"
				}
			],
			"stateMutability": "nonpayable",
			"type": "function"
		},
		{
			"inputs": [
				{
					"internalType": "address",
					"name": "controller",
					"type": "address"
				},
				{
					"internalType": "string",
					"name": "controllerId",
					"type": "string"
				}
			],
			"name": "renounceOwnership",
			"outputs": [],
			"stateMutability": "nonpayable",
			"type": "function"
		},
		{
			"inputs": [
				{
					"internalType": "address",
					"name": "controller",
					"type": "address"
				},
				{
					"internalType": "string",
					"name": "controllerId",
					"type": "string"
				}
			],
			"name": "setController",
			"outputs": [],
			"stateMutability": "nonpayable",
			"type": "function"
		},
		{
			"inputs": [
				{
					"internalType": "uint256",
					"name": "fee",
					"type": "uint256"
				}
			],
			"name": "setDepositFee",
			"outputs": [
				{
					"internalType": "bool",
					"name": "",
					"type": "bool"
				}
			],
			"stateMutability": "nonpayable",
			"type": "function"
		},
		{
			"inputs": [
				{
					"internalType": "bytes4",
					"name": "interfaceId",
					"type": "bytes4"
				}
			],
			"name": "supportsInterface",
			"outputs": [
				{
					"internalType": "bool",
					"name": "",
					"type": "bool"
				}
			],
			"stateMutability": "view",
			"type": "function"
		},
		{
			"inputs": [
				{
					"internalType": "address",
					"name": "newOwner",
					"type": "address"
				},
				{
					"internalType": "address",
					"name": "tokenAddress",
					"type": "address"
				},
				{
					"internalType": "uint256",
					"name": "tokenId",
					"type": "uint256"
				}
			],
			"name": "transferOwnership",
			"outputs": [
				{
					"internalType": "address",
					"name": "",
					"type": "address"
				}
			],
			"stateMutability": "nonpayable",
			"type": "function"
		},
		{
			"inputs": [
				{
					"internalType": "address payable",
					"name": "receiver",
					"type": "address"
				},
				{
					"internalType": "address",
					"name": "tokenAddress",
					"type": "address"
				},
				{
					"internalType": "uint256",
					"name": "amount",
					"type": "uint256"
				}
			],
			"name": "trustedForwarder",
			"outputs": [
				{
					"internalType": "address",
					"name": "",
					"type": "address"
				}
			],
			"stateMutability": "view",
			"type": "function"
		},
		{
			"inputs": [
				{
					"internalType": "address payable",
					"name": "receiver",
					"type": "address"
				},
				{
					"internalType": "address",
					"name": "tokenAddress",
					"type": "address"
				},
				{
					"internalType": "uint256",
					"name": "tokenId",
					"type": "uint256"
				},
				{
					"internalType": "uint256",
					"name": "amount",
					"type": "uint256"
				}
			],
			"name": "versionRecipient",
			"outputs": [
				{
					"internalType": "string",
					"name": "",
					"type": "string"
				}
			],
			"stateMutability": "view",
			"type": "function"
		},
		{
			"inputs": [
				{
					"internalType": "address payable",
					"name": "receiver",
					"type": "address"
				},
				{
					"internalType": "address",
					"name": "tokenAddress",
					"type": "address"
				},
				{
					"internalType": "uint256",
					"name": "tokenId",
					"type": "uint256"
				},
				{
					"internalType": "uint256",
					"name": "amount",
					"type": "uint256"
				}
			],
			"name": "withdrawERC1155",
			"outputs": [],
			"stateMutability": "nonpayable",
			"type": "function"
		},
		{
			"inputs": [
				{
					"internalType": "address payable",
					"name": "receiver",
					"type": "address"
				},
				{
					"internalType": "address",
					"name": "tokenAddress",
					"type": "address"
				},
				{
					"internalType": "uint256",
					"name": "tokenId",
					"type": "uint256"
				}
			],
			"name": "withdrawERC721",
			"outputs": [],
			"stateMutability": "nonpayable",
			"type": "function"
		},
		{
			"inputs": [
				{
					"internalType": "address payable",
					"name": "receiver",
					"type": "address"
				},
				{
					"internalType": "address",
					"name": "tokenAddress",
					"type": "address"
				},
				{
					"internalType": "uint256",
					"name": "amount",
					"type": "uint256"
				}
			],
			"name": "withdrawErc20",
			"outputs": [],
			"stateMutability": "nonpayable",
			"type": "function"
		},
		{
			"inputs": [
				{
					"internalType": "address payable",
					"name": "receiver",
					"type": "address"
				},
				{
					"internalType": "uint256",
					"name": "amount",
					"type": "uint256"
				}
			],
			"name": "withdrawEther",
			"outputs": [],
			"stateMutability": "nonpayable",
			"type": "function"
		}
	],
	"address": "0xF03EAB2b60eFB6E24C1b254A2D6fC91Eb639D6d3",
	"deployTransaction": {
		"hash": "0xe6f3e3629afaf3c9f177089d15f2671a660a931bbd70a90b6666bbaa61051015",
		"blockHash": "0xe9602103dc90d12a9f25a1ff65a6dacc5eb61a68c4e3d7f6598173565ba76318",
		"blockNumber": 23650566,
		"transactionIndex": 7,
		"confirmations": 1,
		"from": "0x6d46b37708dA7Ed4E5C4509495768Fecd3D17C01",
		"gasPrice": {
			"type": "BigNumber",
			"hex": "0x02540be400"
		},
		"gasLimit": {
			"type": "BigNumber",
			"hex": "0x08661f"
		},
		"to": null,
		"value": {
			"type": "BigNumber",
			"hex": "0x00"
		},
		"nonce": 1572,
		"data": "0x60806040526040516109943803806109948339818101604052606081101561002657600080fd5b8151602083015160408085018051915193959294830192918464010000000082111561005157600080fd5b90830190602082018581111561006657600080fd5b825164010000000081118282018810171561008057600080fd5b82525081516020918201929091019080838360005b838110156100ad578181015183820152602001610095565b50505050905090810190601f1680156100da5780820380516001836020036101000a031916815260200191505b5060408181527f656970313936372e70726f78792e696d706c656d656e746174696f6e0000000082525190819003601c01902086935084925060008051602061093983398151915260001990910114905061013157fe5b610143826001600160e01b0361026516565b8051156101fb576000826001600160a01b0316826040518082805190602001908083835b602083106101865780518252601f199092019160209182019101610167565b6001836020036101000a038019825116818451168082178552505050505050905001915050600060405180830381855af49150503d80600081146101e6576040519150601f19603f3d011682016040523d82523d6000602084013e6101eb565b606091505b50509050806101f957600080fd5b505b5050604080517f656970313936372e70726f78792e61646d696e00000000000000000000000000815290519081900360130190206000805160206109198339815191526000199091011461024b57fe5b61025d826001600160e01b036102c516565b5050506102dd565b610278816102d760201b6103b41760201c565b6102b35760405162461bcd60e51b815260040180806020018281038252603b815260200180610959603b913960400191505060405180910390fd5b60008051602061093983398151915255565b60008051602061091983398151915255565b3b151590565b61062d806102ec6000396000f3fe60806040526004361061004e5760003560e01c80633659cfe6146100655780634f1ef286146100985780635c60da1b146101185780638f28397014610149578063f851a4401461017c5761005d565b3661005d5761005b610191565b005b61005b610191565b34801561007157600080fd5b5061005b6004803603602081101561008857600080fd5b50356001600160a01b03166101ab565b61005b600480360360408110156100ae57600080fd5b6001600160a01b0382351691908101906040810160208201356401000000008111156100d957600080fd5b8201836020820111156100eb57600080fd5b8035906020019184600183028401116401000000008311171561010d57600080fd5b5090925090506101e5565b34801561012457600080fd5b5061012d610292565b604080516001600160a01b039092168252519081900360200190f35b34801561015557600080fd5b5061005b6004803603602081101561016c57600080fd5b50356001600160a01b03166102cf565b34801561018857600080fd5b5061012d610389565b6101996103ba565b6101a96101a461041a565b61043f565b565b6101b3610463565b6001600160a01b0316336001600160a01b031614156101da576101d581610488565b6101e2565b6101e2610191565b50565b6101ed610463565b6001600160a01b0316336001600160a01b031614156102855761020f83610488565b6000836001600160a01b031683836040518083838082843760405192019450600093509091505080830381855af49150503d806000811461026c576040519150601f19603f3d011682016040523d82523d6000602084013e610271565b606091505b505090508061027f57600080fd5b5061028d565b61028d610191565b505050565b600061029c610463565b6001600160a01b0316336001600160a01b031614156102c4576102bd61041a565b90506102cc565b6102cc610191565b90565b6102d7610463565b6001600160a01b0316336001600160a01b031614156101da576001600160a01b0381166103355760405162461bcd60e51b81526004018080602001828103825260368152602001806105876036913960400191505060405180910390fd5b7f7e644d79422f17c01e4894b5f4f588d331ebfa28653d42ae832dc59e38c9798f61035e610463565b604080516001600160a01b03928316815291841660208301528051918290030190a16101d5816104c8565b6000610393610463565b6001600160a01b0316336001600160a01b031614156102c4576102bd610463565b3b151590565b6103c2610463565b6001600160a01b0316336001600160a01b031614156104125760405162461bcd60e51b81526004018080602001828103825260328152602001806105556032913960400191505060405180910390fd5b6101a96101a9565b7f360894a13ba1a3210667c828492db98dca3e2076cc3735a920a3ca505d382bbc5490565b3660008037600080366000845af43d6000803e80801561045e573d6000f35b3d6000fd5b7fb53127684a568b3173ae13b9f8a6016e243e63b6e8ee1178d6a717850b5d61035490565b610491816104ec565b6040516001600160a01b038216907fbc7cd75a20ee27fd9adebab32041f755214dbc6bffa90cc0225b39da2e5c2d3b90600090a250565b7fb53127684a568b3173ae13b9f8a6016e243e63b6e8ee1178d6a717850b5d610355565b6104f5816103b4565b6105305760405162461bcd60e51b815260040180806020018281038252603b8152602001806105bd603b913960400191505060405180910390fd5b7f360894a13ba1a3210667c828492db98dca3e2076cc3735a920a3ca505d382bbc5556fe43616e6e6f742063616c6c2066616c6c6261636b2066756e6374696f6e2066726f6d207468652070726f78792061646d696e43616e6e6f74206368616e6765207468652061646d696e206f6620612070726f787920746f20746865207a65726f206164647265737343616e6e6f742073657420612070726f787920696d706c656d656e746174696f6e20746f2061206e6f6e2d636f6e74726163742061646472657373a26469706673582212206e221e2a3547bd97244b05ed46430b1b078ba097cb2a4e25ec3d79cf9ac9f02c64736f6c63430006080033b53127684a568b3173ae13b9f8a6016e243e63b6e8ee1178d6a717850b5d6103360894a13ba1a3210667c828492db98dca3e2076cc3735a920a3ca505d382bbc43616e6e6f742073657420612070726f787920696d706c656d656e746174696f6e20746f2061206e6f6e2d636f6e74726163742061646472657373000000000000000000000000007ecd0d21a2857e976fadb18007e0118752a2ac00000000000000000000000057e00fe4242020f6a0a68f7ed72215908a17831200000000000000000000000000000000000000000000000000000000000000600000000000000000000000000000000000000000000000000000000000000024c4d66de80000000000000000000000001337c0d31337c0d31337c0d31337c0d31337c0d300000000000000000000000000000000000000000000000000000000",
		"r": "0x3e2d0f7e6c8f7c49cf437113b74e68634f06c34f3061a1c1d8aeb485d268b351",
		"s": "0x771099846aee89abb2c18243849eb842e2fb4d993e6c62914ca43d9cbd21da08",
		"v": 119,
		"creates": "0xF03EAB2b60eFB6E24C1b254A2D6fC91Eb639D6d3",
		"raw": "0xf90aa98206248502540be4008308661f8080b90a5460806040526040516109943803806109948339818101604052606081101561002657600080fd5b8151602083015160408085018051915193959294830192918464010000000082111561005157600080fd5b90830190602082018581111561006657600080fd5b825164010000000081118282018810171561008057600080fd5b82525081516020918201929091019080838360005b838110156100ad578181015183820152602001610095565b50505050905090810190601f1680156100da5780820380516001836020036101000a031916815260200191505b5060408181527f656970313936372e70726f78792e696d706c656d656e746174696f6e0000000082525190819003601c01902086935084925060008051602061093983398151915260001990910114905061013157fe5b610143826001600160e01b0361026516565b8051156101fb576000826001600160a01b0316826040518082805190602001908083835b602083106101865780518252601f199092019160209182019101610167565b6001836020036101000a038019825116818451168082178552505050505050905001915050600060405180830381855af49150503d80600081146101e6576040519150601f19603f3d011682016040523d82523d6000602084013e6101eb565b606091505b50509050806101f957600080fd5b505b5050604080517f656970313936372e70726f78792e61646d696e00000000000000000000000000815290519081900360130190206000805160206109198339815191526000199091011461024b57fe5b61025d826001600160e01b036102c516565b5050506102dd565b610278816102d760201b6103b41760201c565b6102b35760405162461bcd60e51b815260040180806020018281038252603b815260200180610959603b913960400191505060405180910390fd5b60008051602061093983398151915255565b60008051602061091983398151915255565b3b151590565b61062d806102ec6000396000f3fe60806040526004361061004e5760003560e01c80633659cfe6146100655780634f1ef286146100985780635c60da1b146101185780638f28397014610149578063f851a4401461017c5761005d565b3661005d5761005b610191565b005b61005b610191565b34801561007157600080fd5b5061005b6004803603602081101561008857600080fd5b50356001600160a01b03166101ab565b61005b600480360360408110156100ae57600080fd5b6001600160a01b0382351691908101906040810160208201356401000000008111156100d957600080fd5b8201836020820111156100eb57600080fd5b8035906020019184600183028401116401000000008311171561010d57600080fd5b5090925090506101e5565b34801561012457600080fd5b5061012d610292565b604080516001600160a01b039092168252519081900360200190f35b34801561015557600080fd5b5061005b6004803603602081101561016c57600080fd5b50356001600160a01b03166102cf565b34801561018857600080fd5b5061012d610389565b6101996103ba565b6101a96101a461041a565b61043f565b565b6101b3610463565b6001600160a01b0316336001600160a01b031614156101da576101d581610488565b6101e2565b6101e2610191565b50565b6101ed610463565b6001600160a01b0316336001600160a01b031614156102855761020f83610488565b6000836001600160a01b031683836040518083838082843760405192019450600093509091505080830381855af49150503d806000811461026c576040519150601f19603f3d011682016040523d82523d6000602084013e610271565b606091505b505090508061027f57600080fd5b5061028d565b61028d610191565b505050565b600061029c610463565b6001600160a01b0316336001600160a01b031614156102c4576102bd61041a565b90506102cc565b6102cc610191565b90565b6102d7610463565b6001600160a01b0316336001600160a01b031614156101da576001600160a01b0381166103355760405162461bcd60e51b81526004018080602001828103825260368152602001806105876036913960400191505060405180910390fd5b7f7e644d79422f17c01e4894b5f4f588d331ebfa28653d42ae832dc59e38c9798f61035e610463565b604080516001600160a01b03928316815291841660208301528051918290030190a16101d5816104c8565b6000610393610463565b6001600160a01b0316336001600160a01b031614156102c4576102bd610463565b3b151590565b6103c2610463565b6001600160a01b0316336001600160a01b031614156104125760405162461bcd60e51b81526004018080602001828103825260328152602001806105556032913960400191505060405180910390fd5b6101a96101a9565b7f360894a13ba1a3210667c828492db98dca3e2076cc3735a920a3ca505d382bbc5490565b3660008037600080366000845af43d6000803e80801561045e573d6000f35b3d6000fd5b7fb53127684a568b3173ae13b9f8a6016e243e63b6e8ee1178d6a717850b5d61035490565b610491816104ec565b6040516001600160a01b038216907fbc7cd75a20ee27fd9adebab32041f755214dbc6bffa90cc0225b39da2e5c2d3b90600090a250565b7fb53127684a568b3173ae13b9f8a6016e243e63b6e8ee1178d6a717850b5d610355565b6104f5816103b4565b6105305760405162461bcd60e51b815260040180806020018281038252603b8152602001806105bd603b913960400191505060405180910390fd5b7f360894a13ba1a3210667c828492db98dca3e2076cc3735a920a3ca505d382bbc5556fe43616e6e6f742063616c6c2066616c6c6261636b2066756e6374696f6e2066726f6d207468652070726f78792061646d696e43616e6e6f74206368616e6765207468652061646d696e206f6620612070726f787920746f20746865207a65726f206164647265737343616e6e6f742073657420612070726f787920696d706c656d656e746174696f6e20746f2061206e6f6e2d636f6e74726163742061646472657373a26469706673582212206e221e2a3547bd97244b05ed46430b1b078ba097cb2a4e25ec3d79cf9ac9f02c64736f6c63430006080033b53127684a568b3173ae13b9f8a6016e243e63b6e8ee1178d6a717850b5d6103360894a13ba1a3210667c828492db98dca3e2076cc3735a920a3ca505d382bbc43616e6e6f742073657420612070726f787920696d706c656d656e746174696f6e20746f2061206e6f6e2d636f6e74726163742061646472657373000000000000000000000000007ecd0d21a2857e976fadb18007e0118752a2ac00000000000000000000000057e00fe4242020f6a0a68f7ed72215908a17831200000000000000000000000000000000000000000000000000000000000000600000000000000000000000000000000000000000000000000000000000000024c4d66de80000000000000000000000001337c0d31337c0d31337c0d31337c0d31337c0d30000000000000000000000000000000000000000000000000000000077a03e2d0f7e6c8f7c49cf437113b74e68634f06c34f3061a1c1d8aeb485d268b351a0771099846aee89abb2c18243849eb842e2fb4d993e6c62914ca43d9cbd21da08",
		"chainId": 42
	},
	"upgradeTransaction": {
		"hash": "0xb5c417f77349be635ef5fa77159be781e76e0e1169eb7d41c1a018df53aa27b7",
		"type": 0,
		"accessList": null,
		"blockHash": null,
		"blockNumber": null,
		"transactionIndex": null,
		"confirmations": 0,
		"from": "0x6d46b37708dA7Ed4E5C4509495768Fecd3D17C01",
		"gasPrice": {
			"type": "BigNumber",
			"hex": "0x02540be400"
		},
		"gasLimit": {
			"type": "BigNumber",
			"hex": "0x968d"
		},
		"to": "0x57e00fe4242020F6A0A68f7Ed72215908a178312",
		"value": {
			"type": "BigNumber",
			"hex": "0x00"
		},
		"nonce": 3420,
		"data": "0x99a88ec4000000000000000000000000f03eab2b60efb6e24c1b254a2d6fc91eb639d6d30000000000000000000000004c8b14411db1437148b3320760794807437c36b6",
		"r": "0x070c2f51cbf9271a91749ed6ac9cb954664b0eb78c3d097e840f2e90db9a9172",
		"s": "0x76be33601d5b449f740ea188d832660d4a4b5a0bb289e88a5328ee2cb87c4807",
		"v": 119,
		"creates": null,
		"raw": "0xf8ab820d5c8502540be40082968d9457e00fe4242020f6a0a68f7ed72215908a17831280b84499a88ec4000000000000000000000000f03eab2b60efb6e24c1b254a2d6fc91eb639d6d30000000000000000000000004c8b14411db1437148b3320760794807437c36b677a0070c2f51cbf9271a91749ed6ac9cb954664b0eb78c3d097e840f2e90db9a9172a076be33601d5b449f740ea188d832660d4a4b5a0bb289e88a5328ee2cb87c4807",
		"chainId": 42
	}
}